:020000040800F2
:10000000C80C0020A51B0008750400087704000830
:100010007B0400087F04000883040008000000003F
:10002000000000000000000000000000870400083D
:1000300089040008000000008B0400088D040008FB
:10004000BF1B0008BF1B0008BF1B0008BF1B000828
:10005000BF1B0008BF1B0008BF1B0008BF1B000818
:10006000BF1B0008BF1B0008BF1B0008BF1B000808
:10007000BF1B0008BF1B0008BF1B0008BF1B0008F8
:10008000BF1B0008BF1B0008BF1B0008BF1B0008E8
:10009000BF1B0008BF1B0008BF1B0008BF1B0008D8
:1000A000BF1B0008DB0B0008BF1B0008BF1B0008BC
:1000B000550800086D080008BF1B0008BF1B00089A
:1000C000BF1B0008BF1B0008BF1B0008BF1B0008A8
:1000D000BF1B00085F180008BF1B0008D5110008EF
:1000E000BF1B0008BF1B0008BF1B0008BF1B000888
:1000F000BF1B0008BF1B0008BF1B0008BF1B000878
:10010000BF1B0008BF1B0008BF1B0008BF1B000867
:10011000BF1B0008BF1B0008BF1B0008BF1B000857
:10012000BF1B0008BF1B0008BF1B0008BF1B000847
:1001300000F002F800F090F80AA090E8000C824469
:100140008344AAF10107DA4501D100F085F8AFF246
:10015000090EBAE80F0013F0010F18BFFB1A43F0A5
:1001600001031847C0540000E0540000103A24BFB7
:1001700078C878C1FAD8520724BF30C830C144BF0C
:1001800004680C607047000000230024002500264E
:10019000103A28BF78C1FBD8520728BF30C148BFEA
:1001A0000B6070476E2902F0D384702902F03D86FF
:1001B000662905F0BC80652905F0B980672905F03E
:1001C000B6806129AFF3008003681B0A28BF41F0A5
:1001D0008001692902F08084642902F07D847529F8
:1001E00002F07A846F2902F0CA85782902F0098624
:1001F000E92902F06585E42902F06285F52902F01B
:100200005F85EF2902F0C785F82902F008860368A8
:10021000DB0928BF41F08001632902F0D4847329EF
:1002200002F0D984E32903F0C680F32903F0CB80E0
:10023000002070471FB503F021F9040000200021C1
:1002400004F0B2F9401C60600020002104F096F92F
:10025000E0601FBD10B510BD03F0E2F81146FFF7D6
:10026000E9FF00F00FF803F0BFF903B4FFF7F2FF66
:1002700003BC01F099FA000030BF72B662B680F399
:100280000888704701F026FA4FF4A06001F0AAFC3C
:1002900000F0EEF900F049FA4FF4E13001F093FA82
:1002A0004FF4E13000F0BCFF01F0C0F8472142F20A
:1002B0000F7000F02DFF40F6B83001F048FA002131
:1002C00041F61F4000F0B2FE01F080F9BFE0604847
:1002D000008800F400400028F8D05E48C07A413819
:1002E0000E287DD2DFE800F0070F363A161A1E22DC
:1002F000262A2E329EA70020574908604FF4FA7034
:10030000564908609FE00120534908605020534936
:10031000086098E045205249087094E04620504912
:10032000087090E047204E4908708CE048204C4906
:10033000087088E049204A49087084E04A2048490A
:10034000087080E04B20464908707CE04C2044490E
:10035000087078E043204249087074E000203C496E
:10036000088001F096F904E04B203D49087001F047
:1003700090F900213B48006804F01CFE05D10021E3
:100380003948006804F016FEEED0002135480068B8
:1003900004F010FE27D14FF07E513348006804F07E
:1003A00009FE20D143202E4908704FF4FA7001F065
:1003B000CEF92A480068404204F04CFE2B49086000
:1003C0004820274908704FF47A7001F0C0F94B209B
:1003D00023490870800001F0BAF94320204900E069
:1003E00030E008701DE043201D4908704FF4FA709A
:1003F00001F0ADF919480068404204F02BFE1B499A
:1004000008604920164908704FF47A7001F09FF98E
:100410004B2013490870800001F099F943201049DE
:10042000087010E001F017F950200C490860012015
:100430000F49087007E000200D4908704320084963
:10044000087000E000BF00BF0020014908803EE7BF
:10045000B8000020F0000020880122424000002067
:1004600015000020C8000020CC0000201C00002047
:1004700014000020704700BFFEE700BFFEE700BF8A
:10048000FEE700BFFEE77047704770477047000007
:100490000CB50020019000906C48006840F480305A
:1004A0006A49086000BF6948006800F400300090A5
:1004B0000198401C0190009818B90198B0F5A06F00
:1004C000F1D16248006800F4003010B101200090C2
:1004D00001E0002000900098012843D15C480068AA
:1004E00040F010005A4908600846006820F00300F8
:1004F00008600846006840F0020008605348406801
:10050000524948600846406848600846406840F4E0
:10051000806048600846406820F47C1048600846C7
:10052000406840F4E81048600846006840F0807079
:10053000086000BF4548006800F000700028F9D04E
:100540004248406820F0030040494860084640683F
:1005500040F00200486000BF3C48406800F00C00DA
:100560000828F9D10CBD10B5FFF792FF10BD10B5EA
:100570003648006840F00100344908600846406889
:10058000344908403149486008460068324908400B
:100590002E4908600846006820F48020086008465C
:1005A000406820F4FE0048604FF41F008860FFF7A9
:1005B000DAFF4FF000602949086010BD10B5002136
:1005C00000200022214B5B6803F00C0121B10429BB
:1005D00006D0082928D107E0214B224C236027E0D0
:1005E0001F4B204C236023E0184B5B6803F4701012
:1005F000164B5B6803F48032022303EB904022B970
:10060000194B4343174C23600DE0104B5B6803F418
:10061000003323B1144B4343124C236003E0104BCF
:100620004343104C236003E00D4B0E4C236000BF8E
:1006300000BF064B5B68C3F303130C4CE15C094B32
:100640001B68CB40074C236010BD00000010024027
:10065000002002400000FFF8FFFFF6FE08ED00E07A
:1006600000127A007800002000093D007C00002084
:1006700010B58448C06940F001008249C86108464D
:10068000806940F0040088617F48006820F0FF0026
:100690007D4908600846006840F044000860C804CE
:1006A000808940F00100C90488810846808940F0B3
:1006B0004000888101231C220321184601F02CF9F7
:1006C00000204FF0804108854FF6FF70888508466E
:1006D000008820F4407008800846008820F0600000
:1006E00008800846008B40F0010008830846008B14
:1006F00040F4807008830846008C20F002000884D3
:100700000846008C20F0200008840846008B40F04A
:10071000300008830846008940F00300088108463D
:10072000008840F00100088010BD10B55548C06930
:1007300040F002005349C8610846806940F0040057
:1007400088615148006820F07F404F4908600846A2
:10075000006840F0884008604C48008840F0010084
:100760004A4908800846008840F04000088001237C
:100770001D220321184601F0CFF8002043491C3107
:1007800008804FF6FF70091D088040480C3800882B
:1007900020F440703D490C3908800846008820F05C
:1007A0006000088039480C30008840F0010037496B
:1007B0000C3108800846008840F480700880334877
:1007C0001430008820F002003049143108800846B7
:1007D000008820F0200008802C480C30008840F071
:1007E00030002A490C3108802848001F008840F05A
:1007F00003002649091F088024480C38008840F06F
:10080000010022490C39088010BD0146022904D09C
:1008100003290BD0042919D111E04FF08042928CAA
:1008200010B200224FF080439A8411E0174A183228
:10083000128810B20022154B18331A8008E0144AAF
:10084000128810B20022124B1A8001E0002000BF73
:1008500000BF70474FF08040008A4FF08040008A10
:1008600020F001004FF08041088270470748001DCA
:1008700000880648001D008820F001000349091D7A
:100880000880704700100240000801400C0400403E
:10089000240800402DE9F04F8BB083468A4650462D
:1008A00004F0EEFACDE9000103F036FE80464FF089
:1008B0006042FE4B04F0F0F8064600224FF0804301
:1008C00003F038FF4FF06042F94BCDE9020103F02D
:1008D00031FF0022F74BCDE9040103F07BFECDE9A7
:1008E0000801584604F0CCFACDE90601DDE90823F9
:1008F00004F0D2F8044604F075F8EF490860504659
:1009000004F0BEFACDE9000103F006FE4FF06042AC
:10091000E64BCDE9020104F0BFF800224FF080431E
:10092000CDE9040103F006FF4FF06042E04BCDE952
:10093000060103F0FFFE06460022DE4B04F0AAF992
:1009400080468946584604F09BFA044642464B4688
:1009500004F0A2F8CDE9080104F044F8D749086092
:10096000D749504604F0A2FB0546D64904F0B4FA34
:10097000044604F053FBD44908600BB0BDE8F08F87
:1009800010B5002808DA4FF4E153D04C238000F56D
:10099000E153241D238008E04FF4E153CB4C241D88
:1009A0002380C0F5E153241F2380002909DA4FF486
:1009B000E153C64C0834238001F5E153241D238004
:1009C00008E04FF4E153C14C0C342380C1F5E153EE
:1009D000241F2380BE4C228010BD41F6F420BD4967
:1009E00009684242914202DA4142BA4A1160B94969
:1009F0000968814201DDB7490860B7490968424288
:100A0000914202DA4142B44A1160B3490968814215
:100A100001DDB1490860AC49096840F2B632914243
:100A200002DA1146A84A1160A749096840F29E728D
:100A3000914202DD1146A44A116070472DE9F05F32
:100A400004460D46281BA54908600846006804F0C6
:100A500001FB8346A2480168584604F027FB804604
:100A60009E4909689F4A1268881A04F0F3FA83467F
:100A70009D480168584604F019FB8146414604F040
:100A80002BFA07469948006804F0E4FA8246394692
:100A900004F022FA064604F0C1FA944908608F482F
:100AA00000689049086091480068BDE8F09F2DE912
:100AB000F05F04460D46281B8D4908600846006813
:100AC00004F0C8FA834686480168584604F0EEFAF6
:100AD000804687490968874A1268881A04F0BAFA7A
:100AE000834681480168584604F0E0FA8146414651
:100AF00004F0F2F907468048006804F0ABFA824639
:100B0000394604F0E9F9064604F088FA7A490860A3
:100B1000774800687749086077480068BDE8F09F2B
:100B200010B57648007843380A2853D2DFE800F041
:100B30000F522A05204E4A3F15347148006804F0D0
:100B400089FA7049086000206F49086043E000207E
:100B50006C4908606C4908603DE0694800684042A3
:100B600004F078FA6749086000206749086032E0BD
:100B70006348006804F06EFA62490860634862499D
:100B8000086028E05E48006804F064FA5D49086087
:100B90005F485D4908601EE059480068404204F023
:100BA00059FA5849086059485749086013E05448B1
:100BB0000068404204F04EFA5249086054485249D5
:100BC000086008E053485049086004E052484E4924
:100BD000086000E000BF00BF10BD10B53C483038D1
:100BE000008800F0010000285ED0394830380088C5
:100BF00020F0010036493039088048480078012843
:100C00000BD147480078401CC0B245490870052800
:100C100003D100200870414908700220FFF7F5FD5C
:100C2000404908600320FFF7F0FD40423E4908605C
:100C30003E48007808BBFFF773FF3348016831482E
:100C40000068FFF727FE1C48016836480068FFF778
:100C50002EFF204908601948016833480068FFF7F3
:100C6000EDFE1D490860FFF7B8FE174802681A48F4
:100C7000016818480068FFF783FE2C4800780128B7
:100C80007ED12B480088792804DD00F0E4FC0020A8
:100C9000274908804FF07E512648006804F08AF901
:100CA0005ED14FF07E5147E042E10000CEF7C33FF6
:100CB000F97EC23F0000F03F380000203C000020D9
:100CC000333348440040B544340000203408004029
:100CD000402C01402C00002030000020AC000020FF
:100CE00050000020B40000204C000020B000002084
:100CF000A0000020A8000020A40000201500002073
:100D0000400000201C00002024000020920A063F22
:100D1000920A06BFDB0F493FDB0F49BF49000020A5
:100D200048000020040000200800002014000020DB
:100D30004A000020BC000020A948006804F03AF9ED
:100D40000ED14FF07E51A748006804F033F907D167
:100D50004620A5490870A54800881430A34908809A
:100D60000021A348006804F025F917D14FF07E5107
:100D70009B48006804F01EF910D14FF07E5100E04E
:100D8000B4E09848006804F015F907D14720964967
:100D9000087096480088401C9449088000219448B7
:100DA000006804F007F91BD100218D48006804F0A9
:100DB00001F915D14FF07E518A48006804F0FAF825
:100DC0000ED18C480068404204F044F98A4908601A
:100DD00049208549087085480088401C834908805F
:100DE0004FF07E518248006804F0E4F81AD10021E7
:100DF0007B48006804F0DEF814D1002179480068CF
:100E000004F0D8F80ED17B480068404204F022F983
:100E10007949086048207449087074480088401C6B
:100E2000724908804FF07E517148006804F0C2F8A2
:100E300014D14FF07E516A48006804F0BBF80DD120
:100E400000216848006804F0B5F807D145206649DC
:100E5000087066480088401C644908800021644886
:100E6000006804F0A7F80BD100215D48006804F089
:100E7000A1F805D100215B48006804F09BF826D05A
:100E800000215B48006804F095F80CD14FF07E51CA
:100E90005348006804F08EF805D1002151480068DD
:100EA00004F088F813D04FF07E515148006804F0E8
:100EB00081F81BD100214A48006804F07BF815D165
:100EC0004FF07E514748006804F074F80ED149484D
:100ED0000068404204F0BEF8474908604820424993
:100EE000087042480088401C40490880FFF718FEFF
:100EF0004248016840480068FFF7CCFC4048016860
:100F000040480068FFF7D3FD3F4908603F4801684B
:100F10003F480068FFF792FD3E490860FFF75DFD1E
:100F20003D4802683B48016837480068FFF728FDE4
:100F300010BD2DE9F05F83461BF12D0F02DA4FF44F
:100F40007A7A17E01BF12D0F02DA4FF4FA6A11E0FA
:100F5000584603F076FD80464FF033322F4B03F0B6
:100F60009BFD064600222E4B03F034FB044603F0A3
:100F700039FD82465046BDE8F09F002808DA4FF45C
:100F8000E152284B1A8000F5E1521B1D1A8008E03F
:100F90004FF4E152234B1B1D1A80C0F5E1521B1F79
:100FA0001A80002909DA4FF4E1521E4B08331A80E7
:100FB00001F5E1521B1D1A8008E04FF4E152194B74
:100FC0000C331A80C1F5E1521B1F1A80704710B50F
:100FD00004462046FFF7ADFF1349088010BD00000E
:100FE000C0000020C4000020150000204A0000209E
:100FF000BC000020400000201C0000202400002035
:1010000038000020040000202C0000203C000020BC
:101010000800002030000020340000203333264038
:1010200000A8964034080040402C0140644AD26930
:1010300042F00402624BDA611A46926942F00802F9
:101040009A61604A126822F07F425E4B1A601A462B
:10105000126842F03B421A601A1D126822F0FF0229
:101060001B1D1A601A46126842F0BB021A60564AEB
:101070001080121F1180544A143A128842F0600204
:10108000514B143B1A801A46128842F4C0421A800F
:101090001A1D128842F060021B1D1A801A4612881F
:1010A00042F4C0421A801A1F128842F008021B1F25
:1010B0001A801A46128842F400621A801A1D128899
:1010C00042F008021B1D1A801A46128842F4006280
:1010D0001A801A1D128842F001021B1D1A801A463E
:1010E000128842F010021A801A46128842F4807266
:1010F0001A801A46128842F480521A808022324B9B
:101100002C3B1A801A46128842F001021A8070475E
:1011100070B505460C462A48806940F400602849AD
:1011200088610846806940F00400886127480068AB
:1011300020F47040254908600846006840F43040BB
:10114000086023480580001F04802148103800886B
:1011500040F4C0401E49103908800846008840F419
:1011600000600880081D008840F48050091D088038
:1011700017481830008840F400401549183108809D
:10118000802013492C39088011482038008840F00D
:1011900001000F49203908800D482C38008840F0A4
:1011A00001000B492C39088040F2DC500849143109
:1011B0000880022319220121084600F0ADFB70BD12
:1011C00000100240000C01402C08004004080140BF
:1011D0002C2C014010B540F225516D4801F0B0FAB9
:1011E000E8B16B4801F02CFAC4B26A48008800F4F8
:1011F0000040A0B967480088B0F5167F0FDA5A2C76
:1012000006D16448008840F400406249088006E046
:1012100060490888411C5F4A11805F490C5410BD29
:1012200010B586B004460121082001F065F80121BF
:10123000880401F06EF8564801F0C2F84FF480605F
:10124000ADF8100003208DF8120018208DF813005F
:1012500004A9524800F094FD4FF40060ADF810006E
:1012600004208DF8130004A94C4800F089FD009477
:101270000020ADF80400ADF80600ADF80800ADF8A8
:101280000C000C20ADF80A006946414801F0DBF87B
:1012900001213F4801F063F9012240F225513C4809
:1012A00001F069F927208DF8140002208DF815004F
:1012B00003208DF8160001208DF8170005A800F016
:1012C00096FC00203349088006B010BD0FB438B535
:1012D00005A800903248009A049901F077FA00209E
:1012E00000902F4801F090FB85B200240DE000BF74
:1012F0004021274801F00EFA0028F9D02848015D66
:10130000234801F099F9601C84B2AC42EFDB38BC91
:101310005DF814FB10B5044621461D4801F08CF918
:1013200000BF40211A4801F0F5F90028F9D010BD9E
:1013300010B504460BE014F8011B154801F07CF9C8
:1013400000BF4021124801F0E5F90028F9D02078CB
:101350000028F0D110BD70B505460E4600BF4021F3
:101360000B4801F0D7F90028F9D000240CE0295DE2
:10137000074801F061F900BF4021054801F0CAF9B2
:101380000028F9D0601CC4B2B442F0DB70BD00008C
:1013900000480040B8000020F0000020000C014090
:1013A0004803002070B5044600255948008800F421
:1013B000004058B1002056490988C1F30E01554A32
:1013C00050542146104601F00DFB0546284670BDDD
:1013D0002DE9F04106460D461446002700204C49F1
:1013E000088031464CA0FFF771FFE5B1DCB113E096
:1013F0000A2000F0ACF94648008800F4004058B1DB
:101400002846FFF7CFFF20B1294645A001F0F0F9AB
:1014100006E000203E490880601E80B2041EE7D12D
:1014200000BF04B901273846BDE8F08110B532226B
:101430003EA13FA0FFF7CCFF142240A141A0FFF73F
:10144000C7FF4FF47A7000F082F94FF47A7000F021
:101450007EF94FF47A7000F07AF94FF47A7000F068
:1014600076F94FF4167231A138A0FFF7B1FFC82208
:101470002EA141A0FFF7ACFF64222CA141A0FFF7F1
:10148000A7FF10BD10B5012443A0FFF71FFF4FF4C5
:101490007A7000F05CF9142224A140A0FFF798FFB5
:1014A00004461CB13EA001F0A3F902E041A001F006
:1014B0009FF9204610BD7CB505460C466E460020BF
:1014C00013490880294640A0FFF700FFECB117E060
:1014D0000A2000F03CF90E48008800F4004078B182
:1014E00000200B490988C1F30E010A4A50541646E0
:1014F00031460BA001F07CF900200549088003E08B
:10150000601E80B2041EE3D100BF30467CBD0000E7
:10151000B8000020F000002025730D0A0000000034
:1015200061636B3A25730D0A000000004F4B000009
:1015300041542B43574D4F44453D33007265616420
:101540007900000041542B525354000041542B4366
:10155000575341503D22455350383236365F54453B
:101560005354222C22313233343536373839302235
:101570002C312C330000000041542B4349504D5571
:10158000583D310041542B43495053455256455222
:101590003D312C38303830002B2B2B0041540000CB
:1015A000717569745F7472616E73206661696C65D0
:1015B00064210000717569745F7472616E732073C9
:1015C00075636365737321002573000008B51020EF
:1015D000ADF8000003208DF8020028208DF80300EC
:1015E0006946364800F0CCFB2020ADF8000003200F
:1015F0008DF8020028208DF8030069462F4800F07E
:10160000BFFB4FF48070ADF8000003208DF802009E
:1016100028208DF803006946284800F0B1FB4FF4FC
:101620000070ADF8000003208DF8020028208DF82E
:1016300003006946214800F0A3FB0820ADF8000034
:1016400003208DF8020028208DF8030069461B480E
:1016500000F096FB08BD10B51021184800F023FCDF
:10166000044603F00FFD164908602021134800F0DE
:101670001AFC044603F006FD124908604FF480711D
:101680000E4800F010FC044603F0FCFC0E49086014
:1016900010BD10B50821094800F005FC044603F010
:1016A000F1FC0A4908604FF40071044800F0FBFBAC
:1016B000044603F0E7FC0649086010BD000801403D
:1016C000BC000020C0000020C4000020C800002092
:1016D000CC00002010B56FF0040000F0D2FA2E48C4
:1016E00000682E49B0FBF1F02D49087008460078DB
:1016F00000EB4001C1EBC0104FF6FF7101EAC000E2
:101700002849088010BD0146254A12784A434FF007
:10171000E0235A6100229A611A46126942F00102DE
:101720001A6100BF4FF0E022106900F001021AB107
:1017300000F48032002AF5D04FF0E022126922F046
:1017400001024FF0E0231A6100229A6170470146BE
:10175000144A12884A434FF0E0235A6100229A61EA
:101760001A46126942F001021A6100BF4FF0E022EE
:10177000106900F001021AB100F48032002AF5D09D
:101780004FF0E022126922F001024FF0E0231A61CB
:1017900000229A61704700007800002000127A0051
:1017A000D0000020D2000020014600BF704700BFDB
:1017B000494A128802F04002002AF9D0C2B2464BD0
:1017C0001B1D1A80704710B586B00446012144F2F3
:1017D000040000F091FD4FF40070ADF814000320F8
:1017E0008DF8160018208DF8170005A93B4800F069
:1017F000C7FA4FF48060ADF8140004208DF817008C
:1018000005A9364800F0BCFA25208DF80000032019
:101810008DF801008DF8020001208DF80300684664
:1018200000F0E5F901940020ADF80800ADF80A00D9
:10183000ADF80C00ADF810000C20ADF80E0001A9B9
:10184000254800F000FE012240F22551224800F018
:1018500092FE0121204800F082FE06B010BD10B5B6
:1018600040F225511C4800F06BFF10B31A4800F0FD
:10187000E7FEC4B21A48008800F40040C8B918480E
:10188000008800F4804060B10A2C03D00020144985
:10189000088020E01248008840F400401049088089
:1018A00019E00D2C06D10E48008840F480400C4908
:1018B000088010E00A480088C0F30D0009490C5464
:1018C00007480088401C0649088008460088C72849
:1018D00001DD0020088010BD0038014000080140F3
:1018E000D8000020A0050020A34A0A400243A34BD1
:1018F0001A6070470146072323EA010212029F4B38
:101900001B1D18684FF6FF0318409D4B18431043EA
:101910009A4B1B1D186070472DE9F0410746884619
:1019200014461D462846FFF7E5FFC5F1040007FAF7
:1019300000F60F20284100EA0800064306F00F06D3
:10194000E21704EBD2625211920002F1E022D2F8C7
:1019500000212146E31704EBD3635B11A4EB431C86
:10196000012303FA0CF31A432046E31704EBD36375
:101970005B119B0003F1E023C3F800218148005D67
:1019800040EA06107F490855BDE8F08170B504466D
:101990000B46CE1701EB9676C6F38700CE1701EB08
:1019A0009676B610A1EB8606B606350E764B9B6989
:1019B00043F00103744EB3614FEAB63353F820305D
:1019C0000F26AE40B343714E46F82030334653F8ED
:1019D000203004FA05F61E436C4B43F820606C4B34
:1019E0001B6801268E403343694E336002F00103C9
:1019F00043B1674B0C331B6801268E403343644E62
:101A00000C36336002F0020343B1614B08331E68A9
:101A100001238B401E435E4B08331E6070BD00B532
:101A2000002059490861C86014204861002088617D
:101A3000C8610846006840F0010008600846406838
:101A400054490840504948600846006852490840D7
:101A50004D4908600846006820F480200860084668
:101A6000406820F4FE0048600020886000214FF0AC
:101A70000060FFF739FF00BD10B54048083000682E
:101A800040F004003D49083108603F48C06940F01B
:101A900080503D49C8614148406840F480703F49EA
:101AA00048600846006840F0040008600846006886
:101AB00040F002000860FEF7DFFB10BD3048001D5B
:101AC0002E49091D08607047014649062E4A926951
:101AD00042F001022C4B9A612C4A083A526822F0DB
:101AE000E0622A4B083B5A601A4652680A435A6021
:101AF000704730B504460025FFF791FF2248006883
:101B000040F480302049086000BF1F480068400C46
:101B10000028FAD04FF480601B494860A01EC4B270
:101B20000846406840EA844048600846406840F4FF
:101B3000803048601A48006840F032001849086058
:101B40001148006840F080700F49086000BF0E48DF
:101B50000068400E0028FAD00B48406840F00200B0
:101B60000949486005E008484068C0F3870505F06A
:101B70000305022DF7D130BD80FFFF1F08ED00E007
:101B80000000FA0500E400E00010024008000140F7
:101B9000000401400000FFF8FFFFF6FE0070004067
:101BA000002002400948804709480047FEE7FEE759
:101BB000FEE7FEE7FEE7FEE7FEE7FEE7FEE7FEE7FD
:101BC00004480549054A064B704700006F050008A8
:101BD00031010008C8060020C80C0020C8080020F9
:101BE000C808002031490143314A1160704770B57F
:101BF000002100230F22C47804B32D4C246804F480
:101C0000E064C4F5E064210AC1F10403CA404478E9
:101C100004FA03F18478144021430901254C067825
:101C2000A155047804F01F050124AC4005786D111E
:101C3000AD0005F1E025C5F8004109E0047804F0A5
:101C40001F050124AC401C4D0678761145F826404E
:101C500070BD1A4A0A400243154B1B1F1A60704799
:101C600039B1134A121D12680243114B1B1D1A6031
:101C700006E00F4A121D126882430D4B1B1D1A60AD
:101C80007047042808D14FF0E021096941F00401B0
:101C90004FF0E022116107E04FF0E021096921F0E7
:101CA00004014FF0E0221161704700000000FA05C6
:101CB0000CED00E000E400E080E100E080FFFF1FA9
:101CC00010B50446CC48844208D10121042000F01C
:101CD0002DFB0021042000F029FB46E0C748844288
:101CE00008D10121082000F021FB0021082000F08C
:101CF0001DFB3AE0C248844208D10121102000F0C7
:101D000015FB0021102000F011FB2EE0BD4884429D
:101D100008D10121202000F009FB0021202000F043
:101D200005FB22E0B848844208D10121402000F0A0
:101D3000FDFA0021402000F0F9FA16E0B348844291
:101D400008D10121802000F0F1FA0021802000F06C
:101D5000EDFA0AE0AE48844207D10121801500F077
:101D6000E5FA0021A01500F0E1FA10BD10B501213F
:101D7000084600F0DBFA0021012000F0D7FA10BD80
:101D80002DE9F04102460025002600200023002412
:101D9000002791F803C00CF00F0591F803C00CF078
:101DA000100CBCF1000F03D091F802C04CEA0505FD
:101DB00091F800C0BCF1000F31D0146800202BE076
:101DC0004FF0010C0CFA00F3B1F800C00CEA030666
:101DD0009E4220D183004FF00F0C0CFA03F7BC4356
:101DE00005FA03FC4CEA040491F803C0BCF1280F87
:101DF00006D14FF0010C0CFA00FCC2F814C00AE046
:101E000091F803C0BCF1480F05D14FF0010C0CFA5A
:101E100000FCC2F810C0401C0828D1D31460B1F8EF
:101E200000C0BCF1FF0F34DD546800202EE000F14B
:101E3000080C4FF0010808FA0CF3B1F800C00CEAE6
:101E400003069E4221D183004FF00F0C0CFA03F7DA
:101E5000BC4305FA03FC4CEA040491F803C0BCF14E
:101E6000280F05D100F1080C08FA0CF8C2F814800C
:101E700091F803C0BCF1480F07D100F1080C4FF0F6
:101E8000010808FA0CF8C2F81080401C0828CED3CC
:101E90005460BDE8F0814FF6FF710180022181702E
:101EA0000421C17070470246002093680B400BB1BB
:101EB000012000E0002070470146886880B270472A
:101EC00002460020D3680B400BB1012000E0002047
:101ED00070470146C86880B2704701617047416130
:101EE00070470AB1016100E041617047C16070470D
:101EF0004FF480320A438261816182618269826922
:101F0000704702460020434B18684FF68073184014
:101F100040EA021008433F4B186070473E49C861D1
:101F20007047F0B50A46002300240021002500F088
:101F30000046B6F1004F02D1364EF16901E0354E50
:101F40007168C0F3034583B200F44016B6F5401F34
:101F500008D121F070612F4E766826F070662D4F03
:101F60007E6012E000F48016B6F5801F06D10326CD
:101F700006FA05F4A14341F0706106E0460D360112
:101F800003FA06F6B14341F0706122B1460D360105
:101F900003FA06F6314300F00046B6F1004F02D1D5
:101FA0001C4EF16101E01B4E7160F0BD30B50022A6
:101FB0008B071C0F0F2303FA04F2164B08338C1007
:101FC00053F824309343134C08348D1044F82530D3
:101FD00023468C1053F824308C07240F00FA04F4A5
:101FE00023430C4C08348D1044F8253030BD0A4989
:101FF000DC3108607047000000080140000C01401F
:10200000001001400014014000180140001C014074
:10201000002001400000014000002042DF4800682D
:1020200040F00100DD49086008464068DC4908408E
:10203000DA49486008460068DA490840D74908602C
:102040000846006820F4802008600846406820F4B4
:10205000FE0048604FF41F0088607047CF49096850
:1020600021F48031CD4A11601146096821F48021A4
:102070001160B0F5803F03D0B0F5802F0ED106E09F
:10208000C649096841F48031C44A116007E0C34978
:10209000096841F4A021C14A116000E000BF00BFFF
:1020A000704710B501460022002300204A11012A82
:1020B00002D1BA4C236806E0022A02D1B74C236A47
:1020C00001E0B64C636A01F01F02012494401C40F9
:1020D0000CB1012000E0002010BD38B500200090B8
:1020E0000024002500BF3120FFF7DBFF05460098E4
:1020F000401C00900098B0F5A06F01D0002DF2D0E8
:102100003120FFF7CEFF08B1012400E00024204673
:1021100038BD01460020A14A106820F0F80040EACE
:10212000C10010607047A049086070470246002057
:102130009A4B586820F47C1042EA01031843974BED
:102140005860704798490866704701460020934AD6
:10215000506820F003000843506070478F48406883
:1021600000F00C007047014600208C4A506820F0B7
:10217000F00008435060704701460020874A5068CD
:1021800020F4E06008435060704701460020834A15
:10219000506820F4605040EAC1005060704729B197
:1021A0007E4A527A02437D4B5A7204E07B4A527A4D
:1021B00082437A4B5A7270477B49D8310860704726
:1021C00001460020754A506820F4404008435060A2
:1021D00070470021714A20321170704A82F8201035
:1021E000012802D004280AD104E001216B4A2032E0
:1021F000117005E00521694A2032117000E000BF2E
:1022000000BF70476949086070476449096A014323
:10221000624A11627047654944390860704730B5B9
:1022200000210022002400235C4D6D6805F00C01A4
:1022300021B1042905D0082923D105E05C4D0560B2
:1022400022E05B4D05601FE0544D6D6805F470128F
:10225000524D6D6805F48034022505EB92421CB99D
:10226000544D554305600BE04C4D6D6805F4003549
:102270001DB1504D5543056002E04D4D554305607D
:1022800002E04B4D056000BF00BF444D6D6805F096
:10229000F0010909484D6B5C0568DD4045603F4D24
:1022A0006D6805F4E061090A434D6B5C4568DD40EB
:1022B00085603A4D6D6805F46051C90A3E4D6B5C0E
:1022C0004568DD40C560354D6D6805F44041890BBA
:1022D0003A4D6B5CC568B5FBF3F5056130BD29B1BE
:1022E0002E4A526902432D4B5A6104E02B4A52692F
:1022F00082432A4B5A61704729B1284A92690243A6
:10230000264B9A6104E0254A92698243234B9A61E5
:10231000704729B1214AD2690243204BDA6104E0B7
:102320001E4AD26982431D4BDA61704729B11B4AAC
:10233000D2680243194BDA6004E0184AD26882433B
:10234000164BDA60704729B1144A12690243134BE5
:102350001A6104E0114A12698243104B1A617047F6
:1023600012494039086070470F49C86470470B49EB
:10237000C87170470948406A40F080700749486258
:10238000704701460020054A92680A400AB10120C0
:1023900000E0002070470149887270470010024039
:1023A0000000FFF8FFFFF6FE0000424280044242B8
:1023B00000127A0000093D00DA000020EA00002047
:1023C00010B50446FB48844209D101218803FFF778
:1023D000ADFF00214FF48040FFF7A8FF32E0F64840
:1023E000844209D101214804FFF7ADFF00214FF4D9
:1023F0000030FFF7A8FF25E0F048844209D1012111
:102400008804FFF7A0FF00214FF48020FFF79BFF17
:1024100018E0EB48844209D10121C804FFF793FF7B
:1024200000214FF40020FFF78EFF0BE0E5488442C7
:1024300008D101210805FFF786FF00214FF4801025
:10244000FFF781FF10BD2DE9F04786B005460E4627
:102450000024A24600BFA1460027B08900B100BFFA
:102460002F462C8A4CF6FF700440F08804432C82DF
:10247000AC894EF6F3100440B08831890843718965
:1024800008430443AC81AC8A4FF6FF400440B08956
:102490000443AC8201A8FFF7C2FEC648874202D1BE
:1024A000DDF810A001E0DDF80CA0A88900F40040E0
:1024B00040B10AEBCA0000EB0A1031684900B0FBDA
:1024C000F1F807E00AEBCA0000EB0A103168890056
:1024D000B0FBF1F86420B8FBF0F00401200964219E
:1024E00001FB1089A88900F4004040B1322000EBC4
:1024F000C900B0FBF1F000F00700044308E032200F
:1025000000EB09106421B0FBF1F000F00F00044370
:102510002C8106B0BDE8F0874FF416510160002110
:102520008180C18001810C2141810021818170471E
:1025300010B502460020108A4FF2FF0318400B88A6
:102540004C8823438C882343CC8823431843108230
:1025500010BD0021018041808180C180704721B180
:10256000828942F40052828104E082894DF6FF7331
:102570001A4082817047F0B50346002400260025EA
:10258000002040F66A17B94200D100BF1846C1F3D7
:10259000421401F01F06012707FA06F5012C01D1AC
:1025A0000C3004E0022C01D1103000E014301AB1DC
:1025B00007682F43076002E00768AF430760F0BD7C
:1025C0001AB1838A0B43838202E0838A8B4383821E
:1025D0007047028A4FF6F0731A400282028A0A4359
:1025E0000282704782894FF2FF731A40828182898A
:1025F0000A438281704721B1828942F002028281BE
:1026000004E082894FF6FD731A4082817047028A86
:102610004FF6DF731A400282028A0A430282704731
:1026200021B1028A42F48042028204E0028A4BF61F
:10263000FF731A4002827047C1F30802828070471C
:1026400001468888C0F308007047818941F0010184
:1026500081817047028BD2B20283028B42EA01224F
:1026600002837047028B02F47F420283028B0A438B
:102670000283704721B1828A42F02002828204E004
:10268000828A4FF6DF731A408282704721B1828AB4
:1026900042F01002828204E0828A4FF6EF731A4001
:1026A0008282704721B1828A42F00802828204E06D
:1026B000828A4FF6F7731A408282704721B182896D
:1026C00042F40042828103E08289C2F30E028281D9
:1026D000704721B1828A42F40062828204E0828AD9
:1026E0004FF2FF731A4082827047828A4FF6FB7363
:1026F0001A408282828A0A438282704721B1828A8A
:1027000042F00202828204E0828A4FF6FD731A4090
:102710008282704702460020B1F5007F00D100BFE1
:1027200013880B400BB1012000E00020704701F43A
:102730000072B2F5007F00D100BFCA43028070472B
:1027400070B50246002400230025002040F66A16DA
:10275000B14200D100BFC1F3421501F01F030126B1
:1027600006FA03F3012D02D19689334006E0022DCB
:1027700002D1168A334001E0968A33400C120126BA
:1027800006FA04F41688344013B10CB1012000E0BD
:10279000002070BD10B50022002340F66A14A1424B
:1027A00000D100BF0A1201249440A3B2DC4304808C
:1027B00010BD0000003801400044004000480040C7
:1027C000004C004000500040704700001CB50C4613
:1027D000064B7B4469460090204600F0D2F904463F
:1027E0000020694600F0E0F920461CBDD30300003C
:1027F0000FB4044910B503AA029800F0F1F910BC17
:102800005DF814FBD400002070B50C460546012A83
:1028100005D02878800600D5EA69002302E001236C
:1028200005E05B1C934202D2E05C0028F9D1A86964
:10283000E618C01AA861286A18442862284600F0E1
:1028400011F904E0D5E9012114F8010B9047B442D5
:10285000F8D3284600F01CF970BD00002DE9F05FA8
:10286000894604464FF0000ADFF874B1FB44C0F813
:1028700020A02046E1688847002874D0252806D08B
:10288000D4E901219047206A401C2062F1E700262C
:102890005F462046E16888472028054607DB312D42
:1028A00005D2781910F8200C08B10643F1E7B007FB
:1028B00001D526F00406C4F81CA00027C4F818A00F
:1028C0002A2D09D0284601F01FFE38B304EB8708F3
:1028D000303DC8F8185019E059F8041B204604EBA5
:1028E00087029161E1688847012F054618D1E069A8
:1028F000002820DA26F020061DE0D8F8180000EBAA
:10290000800005EB40003038C8F818002046E16828
:102910008847054601F0F8FD0028EED1012F0AD0C6
:102920002E2D08D12046E16888477F1C0546022FDE
:1029300046F02006C4DBA069002803DA404246F0D6
:102940000106A061F00701D026F010066C2D0BD017
:10295000682D09D04C2D39D06A2D35D0742D35D045
:102960007A2D33D016E038E0E1682F4620468847BC
:10297000B842054609D16C2F26D04FF48060E1683B
:10298000064320468847054604E06C2F1AD04FF4D2
:10299000807006430DB3A5F14100192802D82035F7
:1029A00046F400664A462946204626604E46FDF714
:1029B000F9FB80B101280BD0F61D26F0070000F1CD
:1029C000080956E74020E4E78020D8E70020D6E752
:1029D00006F104094DE7284652E7206ABDE8F09F5A
:1029E000B22B000030B505460B462A4613F8014BC2
:1029F00012F8010B08B1A042F8D01CB1002802D097
:102A00006D1CF1E7284630BD10B5431C02E010F8FC
:102A1000011B71B18107FAD14FF0013202C88C1A43
:102A20008C4314EAC211F9D0C01A0A0603D0C01EA2
:102A300010BDC01A10BD0A0401D0801E10BD0902CD
:102A4000FCD0401E10BD704770477047704710B5EE
:102A500000F0F6F9006810BD10B5044600F0F0F97A
:102A6000046010BD70B5044685690068C10601D5D3
:102A7000302600E02026C00707D070BDD4E9012130
:102A800030469047206A401C20626D1EF6D570BD0E
:102A900070B5044685690078C00707D170BDD4E9D8
:102AA000012120209047206A401C20626D1EF6D52F
:102AB00070BD09684A0501D540B27047C905FCD50B
:102AC00000B2704709684A0501D5C0B27047C90510
:102AD000FCD580B2704700002DE9F0410646002485
:102AE00010687529314616A510D0FFF7E2FF0028BF
:102AF00002DA404213A507E031688A0701D512A522
:102B000002E0490704D511A5012401E0FFF7DAFF2F
:102B100000210A2206F1240709E0B0FBF2FCB0FB19
:102B2000F2F302FB1C00303078541846491C002890
:102B3000F3D123462A463046BDE8F04100F0C9B93A
:102B4000000000002D0000002B000000200000000D
:102B500011680268006A530501D508700AE0D305C0
:102B600001D5088006E0130603D5C217C1E90002AB
:102B700000E008600120704701694A1C0261087882
:102B8000704700B58FB0CDE90131002105910549AD
:102B90007944CDE9031011466846FFF75FFE0FB098
:102BA00000BD0000E5FFFFFF0A6802F8010B0A60A4
:102BB000704710B5436913B1AFF3008001E0FFF730
:102BC00023FE012010BD127800F124010A700022BA
:102BD0004A700122EDE711684FF0FF32E9E700008B
:102BE000074B70B50D467B44FFF7CBFF04462846E4
:102BF00000F0EDFB10B14FF0FF3070BD204670BD0E
:102C0000C5EBFFFF2DE9FF5F15468A460446DFF856
:102C1000AC80F8440027D8E900103E46CDE900100A
:102C200010E03AF816106A4602A800F0D4FB411CE6
:102C300007D02178890603D5E269391891420DD869
:102C40000744761C2078800602D5E069B84205DD8D
:102C5000AE42E6DB3AF816000028E2D1A069C01BBC
:102C6000A0612046FFF7FEFED8E90010CDE9001074
:102C7000002017E03AF818106A4602A800F0ABFBF3
:102C8000B0F1FF3F81460BD000250DF1080B05E0A8
:102C9000D4E901211BF8050090476D1C4D45F7D381
:102CA00008F10100B0428046E4DB206A384420622B
:102CB0002046FFF7EDFEBDE8FF9F00001E28000044
:102CC0002DE9F0418046D21D22F007020025D2E90D
:102CD0000002F52915A614D0011E72F1000106DAD2
:102CE0000023D0EB030063EB020211A608E0D8F842
:102CF00000108B0701D50FA602E0490701D50EA6EB
:102D000001251146002408F1240704E000F09CF896
:102D100030323A55641C50EA0102F7D12B46324654
:102D200021464046BDE8F04100F0D3B80000000065
:102D30002D0000002B0000002000000030B4002116
:102D400000F1240408E002F00705D208303542EA19
:102D50004372DB086554491C52EA0305F3D1046849
:102D6000002310A2250707D5A40600D421B1C46909
:102D700001230DA2641EC46130BC00F0AAB810B5D6
:102D8000044621461068FFF79DFE02462046BDE836
:102D900010400023D2E7D21D22F00701D1E9002321
:102DA000CCE700000000000030000000F0B40D4649
:102DB0000188090502D5214C7C4402E01F4C7C446B
:102DC0000E34002100F1240608E002F00F0712097A
:102DD000E75D42EA03721B097754491C52EA030774
:102DE000F3D102780023120704D5702D06D009B163
:102DF000022311342246F0BC00F06BB801231034DA
:102E0000F8E770B504460D4621461068FFF75AFEF4
:102E1000024629462046BDE870400023C6E7D21D81
:102E200022F00703D3E90023C0E70368126843F0E8
:102E3000200303600823C3610023B7E78026000056
:102E4000004870476806002030B5B0F10A024FEA2A
:102E5000900E71F100034EEA817EB0EB0E0061EB43
:102E600091014FEA101E4EEA017E10EB0E0041EB7D
:102E700011114FEA102E4EEA016E10EB0E0041EBDD
:102E800011214FEA104E4EEA014E10EB0E0041EBBD
:102E90001141401841F100014FEAD00040EA417071
:102EA0004FEAD10110EB80054FEA810444EA9074A7
:102EB00044EB01046D1944EB0404521BA3414FF091
:102EC000000348BF0A3200D530BD401C41F100016B
:102ED00030BD2DE9F0470D4699469246044600F173
:102EE00024080168880604D5E06921F010012160FA
:102EF00000E00120A84201DD471B00E00027A16996
:102F00007A1902EB0900081AA0612078C00602D4E1
:102F10002046FFF7A7FD002608E0D4E901211AF8B2
:102F200006009047206A401C761C20624E45F4DB68
:102F30002078C0060AD52046FFF794FD06E0D4E9C4
:102F4000012130209047206A401C2062381EA7F1E2
:102F50000107F4DC07E0D4E9012118F805009047E7
:102F6000206A401C2062281EA5F10105F3DC2046E2
:102F7000FFF78EFD2078000602D50220BDE8F0871D
:102F80000120FBE770472DE9FF4F0C461E464FF02E
:102F9000FF378BB0D2E90001DDF860800A908A46E5
:102FA000C1F30A5505B93D46002108464FF000001F
:102FB000BAF1000F00F4400005DA00EB80004FF496
:102FC000400101EA50004FEA9059B9F1010F00DDCC
:102FD000B9460A9850EA4A000ED044F61050A5F2BD
:102FE000FF3545432F14B8F1000F1ED07542291E3E
:102FF0001EDDC9F100021CE0B8F1010F4FF0000026
:1030000001D0302103E0F24305E02154401CB042DE
:10301000FBDB30460022002121540B99C1F80880C7
:10302000C1E900200FB0BDE8F08FBD1B6D1CDEE7CD
:103030004A4600DA694206A800F064FA06AB93E853
:10304000070003AB83E8070050460A9900F016FB1F
:103050008DE80700A0F500501F3800900398002D60
:103060000ADD42F21F014A460844002303A90390E7
:10307000684600F07FFD09E0A0F500504A461F3881
:10308000002303A90390684600F089FD8DE807003E
:103090000004000C03D04FF0FF30410800E0104660
:1030A000B8F1000F03D00022009215461EE0751EF5
:1030B00005D4FFF7C9FE303262556D1EF9D5B3460F
:1030C0000122084302D000227F1C04E0207830282F
:1030D00001D100227F1E002A099784D01DE0112D06
:1030E00007DAFFF7B1FE303262556D1C50EA01027B
:1030F000F5D1084302D00098C8B10EE00021681E47
:1031000005E0235C625C63542254401E491C8142EA
:10311000F7DBAB46A81B401E0990002004F80B000B
:103120000B98099AC0F80880C0E9002B7AE71126AD
:103130004FF0000857E72DE9F04F88460446D21DAE
:1031400022F0070191B0D1E90001CDE90A0100F0B8
:103150005DFE02460B98C00F01D02D2007E02068CD
:10316000810701D52B2002E0202101EAC000032ABB
:10317000099001D0072A05DB03464146204600F0AE
:1031800081F90BE12078800601D5E06900E0062096
:10319000B8F1650F814606D0B8F1660F18D0B8F1C6
:1031A000670F70D131E00020B9F1110F009001DB01
:1031B000112301E009F101030AAA01A90CA8FFF7F4
:1031C000E2FEDDE90C70002609F10105834647E0C7
:1031D00001204B4600904FF000470AAA01A90CA815
:1031E000FFF7D1FEDDE90DB00C995D46002610B960
:1031F00009F101000D18B9EB050003D4C0F1FF3649
:1032000009F10105A5EB09002BE0B9F1010F01DA85
:103210004FF001090020B9F1110F0090484601DD7F
:10322000112300E003460AAA01A90CA8FFF7ABFE90
:10323000DDE90C704D4600268346207800070AD44D
:10324000AB4500DA5D4601A8012D04DD411911F8F6
:10325000011C302907D04F4502DA17F1040F04DAB8
:10326000012082460FE06D1EEEE7002F02DCED1B11
:103270003E4403E0781CA84200DD7D1CB81B00F131
:10328000010A4FF000472078000703D4AA4501DB6C
:103290004FF0FF3A0021B7F1004F0DF143088DF8D0
:1032A000431024D002202B23002F01DA7F422D234C
:1032B0000A21021EA0F1010000DC5FB197FBF1FCC6
:1032C00097FBF1F201FB1C7C17460CF1300C08F85F
:1032D00001CDEEE7A8F1010003702188090501D5B1
:1032E000452100E06521A0F1010800F8011C0998C2
:1032F0000FA9A1EB0807FF1D00B10120411901EB47
:10330000EA70A1693844081A401EA0612078C006FE
:1033100002D42046FFF7A6FB099828B1D4E9012181
:103320009047206A401C20622078C00622D52046A3
:10333000FFF798FB1EE0002E04DBB34502DD01A879
:10334000805D00E03020D4E901219047206A401CD4
:103350002062761CAAF101005FEA000A0AD100F09F
:103360008DF8C0680168405CD4E901219047206A6B
:10337000401C2062281EA5F10105DCDC07E0D4E931
:10338000012118F8010B9047206A401C2062381E6A
:10339000A7F10107F3DC2046FFF77AFB032011B009
:1033A00041E610B5436913B1AFF3008001E0FFF7C8
:1033B00029FC012010BD128800F124018284002222
:1033C000C2840122EDE711684FF0FF32E9E7007B8C
:1033D00000F08000704770B516460C46054600F0B8
:1033E00045F8036893F80101012806D0FF2C0FD897
:1033F000185D68B101202C7070BDD3F8070132460A
:10340000214603F2071303442846BDE870401847DD
:103410004FF0FF3070BD0000004870476806002084
:103420007546FFF7F9FFAE4605006946534620F0A2
:103430000700854618B020B5FEF7C2FBBDE8204066
:103440004FF000064FF000074FF000084FF0000B60
:1034500021F00701AC46ACE8C009ACE8C009ACE813
:10346000C009ACE8C0098D467047000010B500F0F7
:1034700005F8001D10BD00BF311100000048704765
:10348000880600202DE9F0411F4604460326016806
:10349000072A01F4006004DB08B116A505E016A5B3
:1034A00003E008B115A500E015A521F0100020608B
:1034B000A069C01EA0610FB1401EA0612046FFF7A9
:1034C000D1FA4FB1D4E9012138469047206A401C17
:1034D0002062C01C206206E0206AFAE7D4E90121DC
:1034E00015F8010B9047761EF8D22046FFF7D0FA68
:1034F000BDE8F0814E414E006E616E00494E4600BF
:10350000696E66002DE9F047814616468AB0354857
:1035100078440DC88DE80D0032487844801C03AC17
:103520000DC884E80D0041F69B300844372190FB1C
:10353000F1F290FBF1F5A5F1800501FB12041B3CB3
:1035400002D56442012000E00020DFF898A0804608
:103550000027FA44AAF1BE0A0EE0E0070AD032467C
:10356000684607EB470101230AEB810100F017FBD6
:103570008DE8070064107F1C002CEED1194F7F44AA
:10358000AE3F19E0E80715D007EB04100DF1180A5B
:1035900090E80E008AE80E00C068F04201D1981948
:1035A00008903246012306A903A800F0F8FA03ABFD
:1035B00083E807006D10641C002DE3D14FF0010378
:1035C00032466946B8F1000F03A802D000F0D2FAE3
:1035D00001E000F0E4FAC9E90001C9F808200AB0E6
:1035E000BDE8F087F820000010B50446AFF3008076
:1035F0002046BDE81040FCF738BE00004FF0013C0B
:1036000050F8042B51F8043B9A4221D1A2EB0C0351
:10361000934313EACC1317D150F8042B51F8043B11
:103620009A4215D1A2EB0C03934313EACC130BD1AE
:1036300050F8042B51F8043B9A4209D1A2EB0C0339
:10364000934313EACC13DBD04FF00000704700BF68
:10365000D01A01BAB1FA81F101F0180122FA01F091
:10366000CB40C1F12001DBB2C0B2C01A2CFA01F389
:10367000D11A914311EAC311E6D170475FEA400CB9
:1036800008BF91F0000F4FEA8C234FEAC12243EAB2
:1036900051514FEA1C5018BF00F5F0404FEA30007E
:1036A00018BF41F000415FEA6C5C00F02980BCF17A
:1036B000FF3F08BF40F080407047130C06BF120464
:1036C0004FF0100C4FF0000C130E04BF12020CF15F
:1036D000080C130F04BF12010CF1040C930F04BF6C
:1036E00092000CF1020CD30F04BF52000CF1010C3C
:1036F00011464FF00002A0F11F00A0EB0C00704734
:1037000011F0004F08BF704731F000413FF4D5AFD2
:103710000B0C06BF09044FF0100C4FF0000C0B0E01
:1037200004BF09020CF1080C0B0F04BF09010CF1D6
:10373000040C8B0F04BF89000CF1020CCB0F04BFEB
:1037400049000CF1010CCCF12003A0EB0C0022FA93
:1037500003F302FA0CF241EA030100F101007047A1
:1037600020F07F4C80EA030023F07F47ACEB070397
:1037700003F57C5300F0004003F1FF032DE980497D
:103780004FEA154B09B44FEA144325EA0B4E24EADD
:1037900003480FF2042606EB132749083E785FEA38
:1037A000320203FB0667C7F5000707FB06F64FEA80
:1037B00054374FEAD64606F1020607FB066CCCF1F9
:1037C000005C4FEA1C472CEA074C07FB06F40CFB95
:1037D00006F504EB15464FEA961634BF00204FF06D
:1037E00000404FEAD13706FB07FC4FEA1C4C0CFBAC
:1037F0000BF7D21B03FB0CF761EB07010CFB0EF779
:10380000B0EB074072EB17420CFB08F734BFA2EB9A
:103810000742B2EB074261EB17414FEA0C444FEA13
:10382000910706FB07FC4FEA1C4C0CFB0BF7B0EBB7
:10383000C74072EB573203FB0CF734BFA2EBC74211
:10384000B2EBC74261EB57310CFB0EF7B0EBC70090
:1038500072EB57720CFB08F734BFA2EBC702B2EB56
:10386000C70261EB5771039F4FEA816141EA9211F0
:1038700004EBCC044FEAD1374FEA826206FB07FC27
:1038800042EA90124FEA80604FEA1C4C0CFB0BF7A7
:10389000D21B03FB0CF761EB07010CFB0EF7B0EB3F
:1038A000074072EB17420CFB08F734BFA2EB07424C
:1038B000B2EB074261EB17414FEA8C554FEA910793
:1038C00004EB9C2406FB07FC4FEA1C4C0CFB0BF79B
:1038D000B0EBC74072EB573203FB0CF734BFA2EBDF
:1038E000C742B2EBC74261EB57310CFB0EF7B0EBAE
:1038F000C70072EB57720CFB08F734BFA2EBC7028C
:10390000B2EBC70261EB577115EB4C254FEA8161B1
:1039100041EA92114FEA82624FEAD13742EA9012AD
:1039200006FB07FC44F100044FEA80604FEA1C4CA0
:103930000CFB0BF7D21B03FB0CF761EB07010CFB35
:103940000EF7B0EB074072EB17420CFB08F734BFE1
:10395000A2EB0742B2EB074261EB174115EB1C15D6
:103960004FEA813141EA92414FEA823242EA904283
:103970004FEA80304FEA0C7644F1000448EA0343F2
:103980004EEA0B484FF0000EB2EB080C71EB030748
:1039900024BF624639464EEB0E0E4FF0000B001866
:1039A000524149414BEB0B0BB2EB080C71EB030797
:1039B0007BF1000B24BF624639464EEB0E0E4FF0F2
:1039C000000B0018524149414BEB0B0BB2EB080CBA
:1039D00071EB03077BF1000B24BF624639464EEBC7
:1039E0000E0E51EA020718BF46F0010616EB0E76DE
:1039F00055F1000254F1000103D5BDE88901BDE88D
:103A00000088BDE88901BDE80048B619524141EB84
:103A10000101A3F10103704780807F7E7D7C7B7A6A
:103A20007978777676757473727171706F6E6E6D6A
:103A30006C6C6B6A6A696868676666656464636310
:103A400062616160605F5F5E5E5D5D5C5C5B5B5A96
:103A50005A59595858575756565555555454535303
:103A600052525251515050504F4F4F4E4E4D4D4D5E
:103A70004C4C4C4B4B4B4A4A4A49494948484847A9
:103A800047474746464645454544444444434343E7
:103A90004342424242414141002B9C4630D4770090
:103AA0002BD01CB54FEA370703B44FF010004FF08E
:103AB0001001BAF1000F06D0BCF1000FDCBF40F0DE
:103AC000080040F008014FF000000FBCBDE81040B6
:103AD0000BF1010BBBF1010F08BF5FEA170722BF13
:103AE00012F1010211F101014FF0004143F1000315
:103AF00000F0004043EA00007047F9D35708D0E7D0
:103B000046EA064613F1400F4FEA16461FDD13F151
:103B1000200FDFBF16430A46002120335B42BED090
:103B2000C3F1200746EA064602FA07F74FEA1646AF
:103B300046EA0706C3F1200722FA03F201FA07F763
:103B400021FA03F14FF0000342EA0702A7E746EA31
:103B5000020646EA06464FEA164646EA0106BCBF9A
:103B600046EA0646360C4FF000034FF000024FF0D5
:103B7000000194E72DE9804C9A46934670B491E891
:103B8000380007C831EA400C48BF34EA430C03D57B
:103B9000FFF7E6FDFFF780FFF0BCBDE8008C2DE9E4
:103BA000804C9A46934670B491E8380007C810F0EC
:103BB000804F08BF13F0804F03D100F005F8FFF7E6
:103BC0006BFFF0BCBDE8008C20F07F4780EA03006B
:103BD00023F07F4C07EB0C03A3F57C5300F000406F
:103BE000A3F1FE0392F0000F00F0B38095F0000FF8
:103BF00000F077802DE901494FEA11404FEA144661
:103C000021EA004800FB06FC24EA064708FB06F60A
:103C100007FB08F800FB07F718EB06484CEB164CBF
:103C20004FEA124B18EB07484FEA15464CEB17408A
:103C300022EA0B4E0BFB06FC25EA06470EFB06F6B6
:103C400007FB0EFE0BFB07F71EEB064E4CEB164C6C
:103C50004FF000061EEB074E4CEB174B18EB0B0812
:103C600040F1000018EB0E0B58EB000840F100008B
:103C70008F1A4FF000013CBFC943661B14BFB5EB60
:103C8000040C00213CBFC943F61B4FEA17444EEA1F
:103C90008E0E27EA04454FEA1C4704FB07622CEA14
:103CA000074C05FB07F70CFB05F604FB0CFC16EBB9
:103CB000074642EB174216EB0C4642EB1C421BEB4D
:103CC000060658EB0202414146EA9E0601D5BDE8D0
:103CD0000189B619524141EB0101A3F10103BDE88D
:103CE00001894FEA14454FEA114724EA054621EAC3
:103CF000074C05FB07F406FB07F70CFB06F105FB79
:103D00000CFC11EB074144EB17444FEA124711EB4F
:103D10000C4144EB1C4422EA074C05FB07F206FB6E
:103D200007F70CFB06F605FB0CFC16EB074642EB0F
:103D3000174216EB0C4642EB1C456A1854F1000181
:103D400048BF7047B619524141EB0101A3F101038D
:103D5000704795F0000F37D04FEA11424FEA1447F1
:103D600021EA024624EA074C02FB07F106FB07F7AB
:103D70000CFB06F402FB0CFC14EB074441EB17416F
:103D80004FEA154714EB0C4441EB1C4125EA074C64
:103D900002FB07F506FB07F70CFB06F602FB0CFC23
:103DA00016EB074645EB174516EB0C4645EB1C4258
:103DB000121951F1000148BF7047B619524141EB49
:103DC0000101A3F1010370474FEA14454FEA11477F
:103DD00024EA054621EA074C05FB07F106FB07F735
:103DE0000CFB06F24FF0000605FB0CFC12EB074241
:103DF00041EB174112EB0C4251EB1C4148BF70479D
:103E0000921841EB0101A3F101037047490050EA08
:103E1000C12018BF04204A0D18BF40F0010040F235
:103E2000FF72B2EB515F08BF40F00200012808BFEB
:103E3000052070472DE9F74F144694B00021C4E9DE
:103E400002111599079121F00045C9498D4206DC00
:103E50001599C4E9000117B00020BDE8F08FC549ED
:103E6000DFF814A3A9423CDD0799C44E0029C44FD2
:103E7000C44A1599534619DD00F018FF554506D080
:103E8000C14AC24B00F012FFC4E900010AE04FF042
:103E9000D352BE4B00F00AFF32463B4600F006FF0D
:103EA000C4E9000117B00120BDE8F08F00F092FBDB
:103EB000554506D0B44AB54B00F08CFBC4E900016F
:103EC0000AE04FF0D352B14B00F084FB32463B4640
:103ED00000F080FBC4E9000117B04FF0FF30BDE8EF
:103EE000F08FAB49A942159978DB21F00041834658
:103EF0008846A84AA84B00F0CFFD0022A74B00F04F
:103F000069FB00F06FFD099000F09BFD06460F462F
:103F10009C4A534600F0C0FD43465A4600F0BAFEA4
:103F200080468A46984A994B3046394600F0B4FD9F
:103F30002A0D01250B924246534600F0ABFE032D9D
:103F4000C4E9000139D00B98C1F30A51401A05EBBE
:103F500045111139814230DA9148C346784400EB6B
:103F60000510CDF80CA00C90D0E90023304639465E
:103F700000F092FD02460B460491069058460399C4
:103F800000F094FE80468A4602460B465846039946
:103F900000F08CFE049B069A00F088FE83460C9885
:103FA00003913946D0E90223304600F075FD5A46A8
:103FB000039B00F07BFE6D1CBDE707980028A2BFA5
:103FC000099817B0BDE8F08F616881F00041616029
:103FD000099817B04042BDE8F08FFFE78446159876
:103FE000C1F31301C0F30A50A0F2F5304FEA601894
:103FF00000F01F06C6F120001390002006900790E5
:1040000041F4801E05206D4676B1664A08EB00013A
:104010007A4452F8213002EB8101B3404A68139987
:1040200022FA01F1194305E05F4908EB00027944E7
:1040300051F82210A1FB0E27A1FB0C131A449A423F
:1040400034BF0123002303EB070A05EB8003D3E908
:1040500001B70F448F4234BF0121002193448B44A8
:1040600011B1934502D903E0934501D2012100E04B
:104070000021C3E901B7514445F82010011EA0F109
:104080000100C1DC0298059F00F10050800F1290E2
:104090000298DDE90356800000F0D3FC83462846F1
:1040A0000D9100F0E5FC6FF01D0201F074F9CDE90F
:1040B0000E01304600F0DCFC6FF03D0201F06BF9C0
:1040C00080468A46384600F0D3FC6FF05D0201F06E
:1040D00062F9074642465346119100F07BFADDE94A
:1040E0000E2300F077FA5A460D9B00F073FA002574
:1040F0000E465A4628460D9B00F0D8FDDDE90E23FA
:1041000000F0D4FD4246534600F0D0FD3A46119BE4
:1041100000F0C0FDDFF898A0244A534600F0BCFC34
:1041200007468846234A244B3146284600F0B4FC13
:104130003A46434600F04EFA074688464FF0A842FA
:1041400053463146284600F0A7FC3A46434600F065
:1041500041FA159A12F0004F04D0129A81F00041F2
:1041600052421292C4E90001129817B0BDE8F08FD4
:10417000FB21E93F7CD90240FB21F93F7370032EFC
:104180008A19A33B000040543163621A61B4D03DE8
:10419000FB21394183C8C96D305FE43F0000E03F37
:1041A000081500008414000066140000182D445403
:1041B000FB21F93D3326A611460B113C2DE9F041B8
:1041C0004F1E00EBC7010446D1E9000115461E460B
:1041D00037F006020DD02A46334600F05DFC7F1E04
:1041E00004EBC703D3E9002300F0F4F937F006022B
:1041F000F1D1022F25D0042F13D0062F18BFBDE810
:10420000F0812A46334600F047FCD4E90A2300F047
:10421000E1F92A46334600F03FFCD4E9082300F0D8
:10422000D9F92A46334600F037FCD4E9062300F0DA
:10423000D1F92A46334600F02FFCD4E9042300F0DC
:10424000C9F92A46334600F027FCD4E9022300F0DE
:10425000C1F92A46334600F01FFCD4E90023BDE82B
:10426000F04100F0B7B900002DE9F04D04468CB0E4
:10427000904821F00047164698460D46099187421E
:1042800006DA2046294600F0ADFB002800F0AE809B
:104290008948B8421CDC09980028BCBF85F000455D
:1042A00088F00048854A864B2046294600F0F2FCFB
:1042B00004460D46324643468248834900F0F6FCE8
:1042C00022462B4600F086F9002604460D46B046ED
:1042D00022462B461046194600F0DEFB8B468246EE
:1042E00002460B4600F0D8FB0246089077480B4682
:1042F000009106217844FFF761FFCDE9031074486F
:1043000006217844009B089AFFF758FF52465B4607
:1043100000F0C2FBCDE9051052465B462046294617
:1043200000F0BAFB07910090DDE90310DDE90532EA
:1043300000F050F9079B009A00F0AEFB324643466E
:1043400000F048F952465B4600F0A6FB3246434671
:1043500000F040F980460E465E4A5F4B0799009890
:1043600000F09AFB4246334600F034F982468B4611
:1043700022462B4600F02EF980464F480E46B842A2
:1043800014985BDC00F05DFB07464246334605911E
:1043900000F020F9CDE90110424633461046194697
:1043A00000F07AFBDDE9013200F0C4F952465B46C9
:1043B00000F07CFC22462B4600F06CFC012200F051
:1043C000EAFF3A46059B00F065FC04460D46099855
:1043D000022101EAA070C0F1010000F032FB0CB034
:1043E00022462B46BDE8F04D00F056BB1498401C09
:1043F000384320430BD01498012812D00CB0224629
:104400002B46BDE8F04D0020344900F093B90CB0C4
:1044100025F000432246BDE8F04D0020304900F071
:1044200089B920462946FFF7F1FC042808BF00F0AF
:1044300063F820460CB02946BDE8F08D012802BF84
:1044400040460CB0BDE8F08D00270B463A462046AA
:10445000294600F01FFC52465B4600F01BFC044658
:104460000D464246334600201C4900F063F983465E
:104470003A4688463346104600F00EFB0022184BA1
:1044800000F0A8F806468A4622462B4638464146A2
:1044900000F002FB3246534600F09CF85A46434671
:1044A00000F0FAFA0CB03A464346BDE8F04D00F091
:1044B00091B800000000303E2894E53F182D445488
:1044C000FB21E93F075C143326A6813C381200002B
:1044D0005A120000635555555555D53F0000F0BFA1
:1044E0000000F03F012200F056BF002213461046A4
:1044F000114600F01FB90000024A0020110700F029
:104500004ABF000001FDFFFF30380A2801D2012018
:10451000704700207047000010B5164B21F0004294
:10452000012486B09A4203DC0022134600941CE06A
:10453000114B9A4208D140B94FF00100FEF78CFAB6
:10454000FFF7D3FF06B010BD03DBFFF7CBFF06B0CC
:1045500010BD02AAFFF76EFC00F00100A4EB4000C2
:104560000DF1080C00909CE80F00FFF77DFE06B0EF
:1045700010BD0000FB21E93F0000F07F10B50029CD
:104580000AD00878002807D005487844FFF736F8A5
:10459000002801D0002010BD0248784410BD000062
:1045A000BA100000B210000010B500290AD0087837
:1045B000002807D005487844FFF720F8002801D0EC
:1045C000002010BD0248784410BD0000AA10000071
:1045D000A210000010B591EA030F48BF83F000431A
:1045E00000F16C83841A71EB030C05D2121943EBB2
:1045F0000C03001B61EB0C01DFF824E14FEA1154BE
:10460000A4EB135C1EEA430F18BF9EEA445F73D00D
:1046100023EA0E03DCF1200E21EA045143F4801357
:1046200032D322FA0CFE10EB0E0023FA0CFE41EB03
:104630000E01CCF1200E03FA0EFE10EB0E0051F12C
:104640000001B1F5801FCCF1200E32D201EB0451F4
:1046500012FA0EF2BDE8104058BF7047401C38BF38
:104660005FEA420218BF7047002814BF20F0010023
:1046700041F100014FEA410313F5001F38BF7047B5
:10468000A1F1C04100F000BB012A43EB0302ACF1F1
:10469000200CDCF11F0E32BF4FF0000E23FA0CF39A
:1046A00010EB030041EB0451B4EB115FD0D0A1EB50
:1046B000045101F5801149085FEA300001EB045113
:1046C0000ED350F1000038BF12FA0EFE08D1BDE83B
:1046D0001040C9E7401C38BF5FEA4202CAD1C3E7B5
:1046E000BDE810404FEA410313F5001F38BF704783
:1046F000A1F1C04100F0C8BA9EEA445F08D011EAB7
:104700005E0FBDE8104004BF01F00041002070477B
:10471000BDE8104070B500F069FA00BF64FBBE3E12
:104720000000E0FF02494FF0000000F002BE00BFB1
:104730000000F87F2DE9C04130B4DFF8A0C23CEAA8
:10474000111418BF3CEA131400F0EC8081EA030551
:104750001CEA111444EAD57418BF1CEA131500F0C2
:10476000C780A4EB05044FF0004545EAC12145EAA6
:10477000C32341EA505143EA525304F17F749942F2
:1047800004F500344FEAC0204FEAC22208BF90422D
:1047900000F09C804FEA13650FF24016765D4FEAF9
:1047A000134506FB05F7C7F1807706FB07F74FEACD
:1047B000D737A7FB03687642C8F58038A7FB06CE3B
:1047C00038BFA8F1010807FB08E64FF0000EA6FB72
:1047D000028CE6FB03CEDCF1000CCEF1004E38BFBC
:1047E000AEF1010EA6FB0C584FF000074FF000058C
:1047F000E6FB0E87A1FB08C6A0FB07CE16EB0E0654
:1048000045F10005E1FB076515F1E04E7EBFA4F51B
:1048100080345FEA46066D4116F1800745F10005D8
:104820004FEA17274FEA066647EA0567A6F1DE4614
:10483000B6F1805F4FEA15251FD9384624F0010CE8
:1048400005EBC471BCF1FE6F01EB0C1102D8F0BC9A
:10485000BDE8008124425CBF01F5801E9EEAC47F52
:1048600002D4F0BCBDE80081244238D4F0BCA1F1F0
:10487000C041BDE8004100F007BA4FEAD22242EA47
:1048800043524FEAD323A7FB02864FEAD02040EAE7
:10489000415007FB03661EEA0E0F4FEAD12105FBCC
:1048A000026658BFA6EB0056B6EB00564FEA520E12
:1048B0004EEAC37E18EB0E0E56EB530EBDD518EB29
:1048C00002085E417F1C55F10005B6E74FF48015E4
:1048D0004FF000074FF000064FF00008ADE7F0BCC6
:1048E0004FF0000001F1C04101F00041BDE800813E
:1048F00011EA0C1F0CEA131500D00CE013EA0C1F90
:1049000000F025804FF00000F0BC81EA030101F0C7
:104910000041BDE80081F0BCBDE8004181EA03012F
:1049200000F0B2B9F0BCBDE8004170B500F05EF92E
:10493000097EFC3E00F007B881EA03014FF0000059
:1049400001F00041704781EA030100F09DB9F0BC1D
:10495000BDE800414FF0000021497047FFFDFBF921
:10496000F7F5F4F2F0EEEDEBE9E8E6E4E3E1E0DEA2
:10497000DDDBDAD8D7D5D4D3D1D0CFCDCCCBCAC814
:10498000C7C6C5C4C2C1C0BFBEBDBCBBBAB9B8B73B
:10499000B6B5B4B3B2B1B0AFAEADACABAAA9A8A82E
:1049A000A7A6A5A4A3A3A2A1A09F9F9E9D9C9C9BFC
:1049B0009A999998979796959594939392919190A7
:1049C0008F8F8E8E8D8C8C8B8B8A89898888878738
:1049D0008685858484838382828181800000FF07AD
:1049E0000000F87F4FEA41034FEA5353A3F5806379
:1049F000D3F11E03C8BFD3F1210C0CDD4FF00042F0
:104A000042EAC12242EA505232FA03FC8CEAE17CCB
:104A1000ACEBE1707047102BC4BF0020704703F56A
:104A2000787CBCF1FF3F04D06FF0004282EA2100A5
:104A3000704770B500F0DAF8499224800020704782
:104A4000F2E710F0004248BF4042B0FA80F310FA9B
:104A500003F10AD0C3F11D0303F580634FEA41500F
:104A600002EB035202EBD12170474FF00000704778
:104A7000B0FA80F310FA03F10AD0C3F11D0303F575
:104A800080634FEA41504FEA035202EBD121704755
:104A90004FF0000070470000DFF848C170B51CEA15
:104AA000111E1EBF1CEA13159EEA0C0F95EA0C0F8F
:104AB00000F06F8081EA030423EA4C134EEAD47EAF
:104AC00021EA4C1141F4801143F48013AE44A1FB60
:104AD000024CA0FB0365AEF17F7E361955EB0C0549
:104AE000A1FB034C4CF10003A0FB021C16EB0C06CF
:104AF000654153F10003094218BF46F0010613F463
:104B0000007F0BD14FEA03314FEA0530340341EA0D
:104B1000155140EA16506FF003020AE04FEAC32134
:104B20004FEAC520F40241EA555140EA56506FF071
:104B3000020202EB2E4201EB025585EACE710AD049
:104B40005FEA440C18BF24F0004450F1000041F12A
:104B5000000120EAD47040F2FE7C624500D270BDB4
:104B6000A84214BF4FF080444FF04044002E08BFCD
:104B70000024BEF1806FA8BFA1F1C041BDE8704024
:104B800080F282804FF0000001F1C04101F000414D
:104B900070479EEA0C0F0CEA131518BF95EA0C0F2C
:104BA00006D04FF0000081EA030E0EF0004170BD08
:104BB00000F01CF88900013E00F007B800F009B8C9
:104BC0004FEA430C5FEA5C5C08D081EA030100F025
:104BD0005BB84FEA410C5FEA5C5CF6D14FF0000035
:104BE000014970470000FF070000F87F0EF1020E38
:104BF0002EF0030E5EF8046B364205D4012A43EB17
:104C0000030515F5001F12D8012841EB010C1CF516
:104C1000001F0CD80ED14FEAD17C15F5001F0CEB0C
:104C20004C0C0CF1020C08BF4CEBD37C04E04FF0B1
:104C3000080C01E04FEAD37C0CEB4C0526FA05F694
:104C400006F00706B6F1040C06D20EEB860CBDE8A2
:104C500070404CF0010C6047DFE80CF0090B0202D9
:104C60004FF000414FF00000A1F5002170BD194642
:104C70001046012851EB010418BFD4F5001484BF7D
:104C8000002001F0004170BD0808A0F500114FEAB6
:104C90003101704791EA030F10B581F000413FF5F3
:104CA000A1AC83F0004300F009B8000010B591EA10
:104CB000030F48BF83F000433FF594AC841A71EBB7
:104CC000030C07D212198CF0004C43EB0C03001BB1
:104CD00061EB0C01DFF8A4E14FEA1154A4EB135C83
:104CE0001EEA430F18BF9EEA445F00F0B08023EA3B
:104CF0006E03524221EA0451C3EB6E0338BF5B1EC0
:104D0000DCF1200E25D322FA0CFE10EB0E0043FA44
:104D10000CFE41EB0E01CCF1200E03FA0EFE10EB5F
:104D20000E0051F10001CCF1200E29D412FA0EF23E
:104D300001EB0451BDE8104058BF7047401C1CBF38
:104D4000B2F1004F704700280CBF491C20F0010051
:104D5000704712EB020E43EB030218BF4FF0010E37
:104D60004EEA4202ACF1200CDCF11E0E54D943FA9B
:104D70000CFE10EB0E0051F1FF31CCF11E0ED5D51B
:104D80000EF1010E12FA0EFE404141EB010101EB62
:104D9000445C5FEA5C5C10D910EBDE7001EB0451FF
:104DA00038BFBEF1004FBDE8104018BF7047002863
:104DB0000CBF491C20F00100704730D24FEAD42CC0
:104DC00011F5001124F400641BD0B1FA81F20B3A02
:104DD000A41AA41ED2F12003914030FA03F3194320
:104DE000904001EBCC71002C01EB0451BDE8104068
:104DF000A8BF704701F1C0414FF0000001F0004131
:104E00007047B0FA80F310FA03F100D110BDE41A34
:104E1000173C4805C90AE4E701EB045110BD4910ED
:104E200001EB0451BDE810404FEA300002E04FF0C2
:104E3000000170474A0008BF0042F8D0B2F5001FD9
:104E400028BF704701F000414FF0000070479EEA14
:104E5000445F07D011EA5E0FBDE8104004BF002197
:104E600000207047BDE8104070B5FFF7BFFE00BFDF
:104E700040DFF63E83F00041104670470000E0FF3F
:104E800043004FEAD30C4FEA3C0C43401FBF40079E
:104E90000CF1605113F0FE4F70471CF0006F03D10E
:104EA00000200CF0004170470CF0004343EA5070C2
:104EB00010B540EACC0000F07AF900BF0000009283
:104EC0004FEA0001FFF7E0BE4FF000414FF0000055
:104ED000A1F500217047000090EA010F48BF81F062
:104EE000004100F1B681421A3CBF801A89184FEA8E
:104EF000D0524FF07F4C1CEA410FA2EBD15318BFA8
:104F00009CEA026F00F03B804FF0004C4CEA00201E
:104F10004CEA012121FA03FC10EB0C0C1ED202F129
:104F2000FF325FEA1C2040EBC25038BF70471CF0D4
:104F30007F0F4FEA400C18BFBCF17F4F38BF70475E
:104F4000C3F12003994008BF20F00100BCF17F4F5E
:104F500038BF7047A0F1C04000F06FB94FEA3C0085
:104F6000000A40EBC25028BF1CF0FF0F4FEA400C74
:104F7000E6D018BFBCF17F4F38BF7047EAE79CEA24
:104F8000026F05D010EA5C0F08BF00F000407047C8
:104F900010B500F00CF900BF64FBBE3E401058BFD6
:104FA000C0F14040491058BFC1F140418142EFF388
:104FB0000080704750EA010C00F113801CF5000FCF
:104FC00058BFBCF5000F01D48842704707D710F5D1
:104FD000000F58BF11F5000F15D488427047894261
:104FE00070471CF5000F04D5BCF5000FF7D58142C2
:104FF00070474FF0807C1CEB400F38BF1CEB410F1B
:1050000001D28142704710B500F0D1F892244900D6
:105010004FF000504FF08051FFF7C0BF41000B0E22
:10502000D3F19E0208D950F400034FEA032323FA78
:1050300002F048BF4042704710B500F0B8F800BF1A
:1050400049922480002070476FF0004282EA2000DD
:105050007047000010F0004148BF4042B0FA80F3B2
:1050600010FA03F2C3F19D030BD051EAC35101EBD7
:105070001220530638BF704700F1010008BF20F02E
:1050800001007047B0FA80F310FA03F2C3F19D03F8
:105090000AD0D90501EB1220530638BF704700F142
:1050A000010008BF20F00100704700004FF47F0CA2
:1050B0001CEAD0121EBF1CEAD11392EA0C0F93EA2D
:1050C0000C0F00F0478090EA010F48BF42F4807255
:1050D0004FF0004C4CEA00204CEA012102EB0302A5
:1050E000A0FB0113A2F50002002918BF43F0010341
:1050F0005B0028BF4FEA330342EB22425FEA132CE6
:105100004CEBC2502EBFBCEB436FB2F57C0F704727
:105110004FEA036CBCF1004F08BF20F00100B2F56C
:105120007C0F38BF70470BD582F0FF0212F5803F2D
:10513000C8BF704700F1C040D8BF00F000407047C2
:1051400000F5000C5FEA4C0C48BF7047B0F1C0405E
:1051500000F073B890EA010F0CEAD11348BF42F493
:105160008072624538BF634504D280EA010000F0D6
:105170000040704710B500F01AF800BF8900013EEA
:1051800000F007B800F009B85FEA410C5FEA1C6C58
:1051900008D080EA010000F050B85FEA400C5FEAF6
:1051A0001C6CF6D14FF00040A0F5800070470EF166
:1051B000020E2EF0030E5EF8044B244204D44FEA94
:1051C0004102B2F17F4F11D84FEA4003B3F17F4F54
:1051D0000CD80ED14FEAD07CB2F17F4F0CEB4C0CC7
:1051E0000CF1020C08BF4CEBD17C04E04FF0080C32
:1051F00001E04FEAD17C0CEB4C0324FA03F404F0F9
:105200000704B4F1040C06D20EEB840CBDE8104088
:105210004CF0010C6047DFE80CF0070802024FF089
:105220000040A0F5800010BD0846420018BFD2F132
:10523000807288BF00F0004010BDFF2141EAD050CD
:10524000C005704790EA010F48BF81F000413FF56B
:105250004AAE421A04D882F00042A0EB0200114488
:105260004FEAD0524FF07F4C1CEA410FA2EBD153D2
:1052700018BF9CEA026F4AD04FF0004C4CEA002065
:105280004CEA012121FA03FCB0EB0C0C0FD412F014
:10529000FE0F36D05FEA4C001DD5001240EBC25025
:1052A00038BF70471CF03F0F18BF70470BE0A2F1EA
:1052B00001025FEA1C2040EBC25038BF70471CF06F
:1052C0007F0F18BF7047C3F12003994014BF401EE1
:1052D00020F00100704780084FEA122308BF704792
:1052E000B0FA80FCA2EB0C02CCF1280C60FA0CF0B6
:1052F00093EA122F04BF00EBC25070474FEAC3700D
:105300007047130A5FEADC1008BF7047F6E79CEAB3
:10531000026F04D010EA5C0F08BF0020704710B580
:10532000FFF745FF40DFF63E81F000407047FDF794
:1053300002BF0CF00F03092B08BF082000F05980B2
:105340000A2B0BD0082B18BF704708BF1CF0400F6A
:105350000AD04FF000004FF0000170471CF0400FE2
:1053600018BF4FF0004070471CF0100F08D020F01D
:10537000704300F07F4242EAD3014FEA4370704726
:1053800000F0604021F07F4242EA000201F07F40DD
:1053900040EA727070474FF0FF0C4CF4E06C1CEA6E
:1053A00011531CBF9CEA030C9445C2BFDA4201EBC7
:1053B00002517047002B0DD0BCF1000F0FD0002A16
:1053C00001F00041A4BF41F0E04141F07F614FF0A6
:1053D0000000704701F000414FF00000704750EAB4
:1053E00001334FF09B0C18BF4CF0806C7FF49AA9EE
:1053F00070471CF4801F11D01CF4E02F03D06FEA1B
:10540000CC31490070474FF04050EFF3008222F05A
:10541000704242EA000282F3008870474FF00000B9
:1054200070470400000800000000000000020001B6
:105430000000100000000000000000003031323396
:1054400034353637383941424344454640305800B8
:1054500030313233343536373839616263646566EA
:10546000403078000000000000004054FB21F93F6C
:105470003163621A61B4D03D0000601A61B4D03D5E
:105480007370032E8A19A33B0000002E8A19A33BD8
:10549000C14920259A837B390000000000000000EC
:1054A0006E83F9A22915444ED15727FCC0DD34F58F
:1054B000999562DB4190433CAB6351FE61C5BBDE15
:1054C0003A6E24B7E0D24D42EA2E49061C92D10929
:1054D0001CEB1DFE3EA729B1F53582E88444BB2EA6
:1054E00026709CE9417E5FB439D69139F4395383F3
:1054F0008B5F849C3B28F9BDFF97F81F0F9805DE52
:105500008B112FEF1F6D0A5ACF7E366DB709CB274F
:10551000663F464F2DEA5F9EC7BA27757BF1E5EBE4
:10552000F739073DEA92528AB15FFB6B085D8D1F28
:105530007AFE10111111C13F37D60684F464963FEC
:10554000280356C9226D6D3F0165F2F2D844433FEE
:10555000A69237A0887E143F735360DBCB75F3BEF1
:10556000FE41B31BBAA1AB3F93846EE9E326823FB1
:105570001583E0FEC8DB573F68108D1AF726303FD1
:10558000E9A7F0320FB8123FD47ABF74702AFB3EFD
:1055900002400000000000A00000000005400000E4
:1055A000000000C8000000000C4000000000409C0B
:1055B00000000000194000000020BCBE00000000F8
:1055C00034400000BFC91B8E00000004B54000003D
:1055D000504BCFD06607E2CF010000006C410000C5
:1055E0003E8251AADFEEA73401000000D94200003C
:1055F000DCB5A0E23A301F97FFFFFFFFB445000083
:10560000FD25A0C8E9A3C14FFFFFFFFFFF3F00003A
:105610000000008000000000FF3F0000000000804C
:10562000000000007057000800000020F00000009B
:105630006C01000860580008F0000020D80B000042
:10564000880100081C00000043000000F8FFFFFF75
:105650000C0000000E0000000F0000002E000000F3
:105660001001000043000000F8FFFFFF0040404031
:105670004040404040404141414141404040404025
:1056800040404040404040404040404040050202D1
:105690000202020202020202020202020220202090
:1056A00020202020202020020202020202029090EC
:1056B00090909090101010101010101010101010EA
:1056C000101010101010101002020202020288883E
:1056D000888888880808080808080808080808084A
:1056E0000808080808080808020202024000000032
:1056F00000000000000000000000000000000000AA
:105700000000000000000000000000000000000099
:105710000000000000000000000000000000000089
:105720000000000000000000000000000000000079
:105730000000000000000000000000000000000069
:105740000000000000000000000000000000000059
:105750000000000000000000000000000000000049
:105760000000000000000000000000000000000039
:105770000000010000000000000000000000000028
:105780000000000000000000000000000000000019
:105790000000000000000000000000000000000009
:1057A00000000000AA05000000000000000000004A
:1057B0000000000000000000000000000000A04108
:1057C000000000000000FA430000A0410000C843B0
:1057D0000000000000000000000000003200000097
:1057E0006C0000200000000000A24A04000000003D
:1057F0000000000001020304060708090000000081
:105800000000000000000000000000000000000098
:105810000000000000000000000000000000000088
:105820000000000000000000000000000000000078
:105830000000000000000000000000000000000068
:105840000000000000000000000000000000010255
:105850000304010203040607080902040608000005
:0400000508000131BD
:00000001FF
